{
  "_format": "hh-sol-artifact-1",
  "contractName": "MarketPlace",
  "sourceName": "contracts/MarketPlace.sol",
  "abi": [
    {
      "inputs": [
        {
          "internalType": "address",
          "name": "owner",
          "type": "address"
        }
      ],
      "stateMutability": "nonpayable",
      "type": "constructor"
    },
    {
      "inputs": [],
      "name": "ReentrancyGuardReentrantCall",
      "type": "error"
    },
    {
      "anonymous": false,
      "inputs": [
        {
          "indexed": false,
          "internalType": "uint256",
          "name": "id",
          "type": "uint256"
        },
        {
          "indexed": true,
          "internalType": "address",
          "name": "creator",
          "type": "address"
        },
        {
          "indexed": true,
          "internalType": "address",
          "name": "owner",
          "type": "address"
        },
        {
          "indexed": false,
          "internalType": "uint256",
          "name": "tokenId",
          "type": "uint256"
        },
        {
          "indexed": false,
          "internalType": "uint256",
          "name": "price",
          "type": "uint256"
        },
        {
          "indexed": false,
          "internalType": "bool",
          "name": "isForSale",
          "type": "bool"
        }
      ],
      "name": "AssetCreated",
      "type": "event"
    },
    {
      "anonymous": false,
      "inputs": [
        {
          "indexed": false,
          "internalType": "uint256",
          "name": "id",
          "type": "uint256"
        },
        {
          "indexed": true,
          "internalType": "address",
          "name": "seller",
          "type": "address"
        },
        {
          "indexed": false,
          "internalType": "bool",
          "name": "isForSale",
          "type": "bool"
        }
      ],
      "name": "AssetForSale",
      "type": "event"
    },
    {
      "anonymous": false,
      "inputs": [
        {
          "indexed": false,
          "internalType": "uint256",
          "name": "id",
          "type": "uint256"
        },
        {
          "indexed": true,
          "internalType": "address",
          "name": "seller",
          "type": "address"
        },
        {
          "indexed": false,
          "internalType": "uint256",
          "name": "price",
          "type": "uint256"
        }
      ],
      "name": "AssetPriceUpdated",
      "type": "event"
    },
    {
      "anonymous": false,
      "inputs": [
        {
          "indexed": false,
          "internalType": "uint256",
          "name": "id",
          "type": "uint256"
        },
        {
          "indexed": true,
          "internalType": "address",
          "name": "seller",
          "type": "address"
        }
      ],
      "name": "AssetRemoved",
      "type": "event"
    },
    {
      "anonymous": false,
      "inputs": [
        {
          "indexed": false,
          "internalType": "uint256",
          "name": "id",
          "type": "uint256"
        },
        {
          "indexed": true,
          "internalType": "address",
          "name": "seller",
          "type": "address"
        },
        {
          "indexed": true,
          "internalType": "address",
          "name": "buyer",
          "type": "address"
        },
        {
          "indexed": false,
          "internalType": "uint256",
          "name": "tokenId",
          "type": "uint256"
        },
        {
          "indexed": false,
          "internalType": "uint256",
          "name": "price",
          "type": "uint256"
        }
      ],
      "name": "AssetSold",
      "type": "event"
    },
    {
      "inputs": [],
      "name": "_feePercent",
      "outputs": [
        {
          "internalType": "uint256",
          "name": "",
          "type": "uint256"
        }
      ],
      "stateMutability": "view",
      "type": "function"
    },
    {
      "inputs": [
        {
          "internalType": "uint256",
          "name": "id",
          "type": "uint256"
        }
      ],
      "name": "buyAsset",
      "outputs": [],
      "stateMutability": "payable",
      "type": "function"
    },
    {
      "inputs": [
        {
          "internalType": "address",
          "name": "tokenAddress",
          "type": "address"
        },
        {
          "internalType": "uint256",
          "name": "tokenId",
          "type": "uint256"
        },
        {
          "internalType": "uint256",
          "name": "price",
          "type": "uint256"
        }
      ],
      "name": "createAsset",
      "outputs": [],
      "stateMutability": "payable",
      "type": "function"
    },
    {
      "inputs": [
        {
          "internalType": "address",
          "name": "tokenAddress",
          "type": "address"
        }
      ],
      "name": "getAllAssets",
      "outputs": [
        {
          "components": [
            {
              "internalType": "uint256",
              "name": "id",
              "type": "uint256"
            },
            {
              "internalType": "address",
              "name": "owner",
              "type": "address"
            },
            {
              "internalType": "address",
              "name": "creator",
              "type": "address"
            },
            {
              "internalType": "address",
              "name": "tokenAddress",
              "type": "address"
            },
            {
              "internalType": "uint256",
              "name": "tokenId",
              "type": "uint256"
            },
            {
              "internalType": "uint256",
              "name": "price",
              "type": "uint256"
            },
            {
              "internalType": "bool",
              "name": "isForSale",
              "type": "bool"
            }
          ],
          "internalType": "struct MarketPlace.Asset[]",
          "name": "",
          "type": "tuple[]"
        }
      ],
      "stateMutability": "view",
      "type": "function"
    },
    {
      "inputs": [
        {
          "internalType": "uint256",
          "name": "id",
          "type": "uint256"
        }
      ],
      "name": "getAsset",
      "outputs": [
        {
          "components": [
            {
              "internalType": "uint256",
              "name": "id",
              "type": "uint256"
            },
            {
              "internalType": "address",
              "name": "owner",
              "type": "address"
            },
            {
              "internalType": "address",
              "name": "creator",
              "type": "address"
            },
            {
              "internalType": "address",
              "name": "tokenAddress",
              "type": "address"
            },
            {
              "internalType": "uint256",
              "name": "tokenId",
              "type": "uint256"
            },
            {
              "internalType": "uint256",
              "name": "price",
              "type": "uint256"
            },
            {
              "internalType": "bool",
              "name": "isForSale",
              "type": "bool"
            }
          ],
          "internalType": "struct MarketPlace.Asset",
          "name": "",
          "type": "tuple"
        }
      ],
      "stateMutability": "view",
      "type": "function"
    },
    {
      "inputs": [
        {
          "internalType": "uint256",
          "name": "id",
          "type": "uint256"
        }
      ],
      "name": "getAssetPrice",
      "outputs": [
        {
          "internalType": "uint256",
          "name": "",
          "type": "uint256"
        }
      ],
      "stateMutability": "view",
      "type": "function"
    },
    {
      "inputs": [],
      "name": "getMarketFee",
      "outputs": [
        {
          "internalType": "uint256",
          "name": "",
          "type": "uint256"
        }
      ],
      "stateMutability": "view",
      "type": "function"
    },
    {
      "inputs": [
        {
          "internalType": "address",
          "name": "operator",
          "type": "address"
        },
        {
          "internalType": "address",
          "name": "from",
          "type": "address"
        },
        {
          "internalType": "uint256",
          "name": "tokenId",
          "type": "uint256"
        },
        {
          "internalType": "bytes",
          "name": "data",
          "type": "bytes"
        }
      ],
      "name": "onERC721Received",
      "outputs": [
        {
          "internalType": "bytes4",
          "name": "",
          "type": "bytes4"
        }
      ],
      "stateMutability": "nonpayable",
      "type": "function"
    },
    {
      "inputs": [
        {
          "internalType": "uint256",
          "name": "id",
          "type": "uint256"
        },
        {
          "internalType": "address",
          "name": "tokenAddress",
          "type": "address"
        }
      ],
      "name": "removeAsset",
      "outputs": [],
      "stateMutability": "nonpayable",
      "type": "function"
    },
    {
      "inputs": [
        {
          "internalType": "uint256",
          "name": "id",
          "type": "uint256"
        },
        {
          "internalType": "bool",
          "name": "isForSale",
          "type": "bool"
        }
      ],
      "name": "setForSale",
      "outputs": [],
      "stateMutability": "nonpayable",
      "type": "function"
    },
    {
      "inputs": [
        {
          "internalType": "uint256",
          "name": "fee",
          "type": "uint256"
        }
      ],
      "name": "setMarketFee",
      "outputs": [],
      "stateMutability": "nonpayable",
      "type": "function"
    },
    {
      "inputs": [
        {
          "internalType": "uint256",
          "name": "id",
          "type": "uint256"
        },
        {
          "internalType": "uint256",
          "name": "newPrice",
          "type": "uint256"
        }
      ],
      "name": "updateAssetPrice",
      "outputs": [],
      "stateMutability": "nonpayable",
      "type": "function"
    }
  ],
  "bytecode": "0x6080604052600560025534801561001557600080fd5b5060405161253c38038061253c833981810160405281019061003791906100e9565b600160008190555080600360006101000a81548173ffffffffffffffffffffffffffffffffffffffff021916908373ffffffffffffffffffffffffffffffffffffffff16021790555050610116565b600080fd5b600073ffffffffffffffffffffffffffffffffffffffff82169050919050565b60006100b68261008b565b9050919050565b6100c6816100ab565b81146100d157600080fd5b50565b6000815190506100e3816100bd565b92915050565b6000602082840312156100ff576100fe610086565b5b600061010d848285016100d4565b91505092915050565b612417806101256000396000f3fe6080604052600436106100a75760003560e01c8063692229481161006457806369222948146101b257806387db5705146101dd578063963986fe1461021a578063c4479ec614610243578063eac8f5b81461026c578063f0a6c16b146102a9576100a7565b8063110d35b8146100ac578063150b7a02146100c857806326b825d214610105578063505d3c3a1461012e5780635e123add1461014a5780635e694cf514610175575b600080fd5b6100c660048036038101906100c1919061155c565b6102d2565b005b3480156100d457600080fd5b506100ef60048036038101906100ea919061164c565b6106a1565b6040516100fc919061170f565b60405180910390f35b34801561011157600080fd5b5061012c6004803603810190610127919061155c565b6106b6565b005b6101486004803603810190610143919061172a565b6107d7565b005b34801561015657600080fd5b5061015f610b47565b60405161016c919061178c565b60405180910390f35b34801561018157600080fd5b5061019c6004803603810190610197919061155c565b610b51565b6040516101a9919061178c565b60405180910390f35b3480156101be57600080fd5b506101c7610b71565b6040516101d4919061178c565b60405180910390f35b3480156101e957600080fd5b5061020460048036038101906101ff91906117a7565b610b77565b604051610211919061194a565b60405180910390f35b34801561022657600080fd5b50610241600480360381019061023c919061196c565b610e2a565b005b34801561024f57600080fd5b5061026a600480360381019061026591906119ac565b61105f565b005b34801561027857600080fd5b50610293600480360381019061028e919061155c565b6111b9565b6040516102a09190611a7a565b60405180910390f35b3480156102b557600080fd5b506102d060048036038101906102cb9190611ac1565b611321565b005b6102da61144b565b60006004600083815260200190815260200160002090508060060160009054906101000a900460ff16610342576040517f08c379a000000000000000000000000000000000000000000000000000000000815260040161033990611b5e565b60405180910390fd5b8060050154341015610389576040517f08c379a000000000000000000000000000000000000000000000000000000000815260040161038090611bca565b60405180910390fd5b60006064600254836005015461039f9190611c19565b6103a99190611c8a565b905060008183600501546103bd9190611cbb565b9050600360009054906101000a900473ffffffffffffffffffffffffffffffffffffffff1673ffffffffffffffffffffffffffffffffffffffff166108fc839081150290604051600060405180830381858888f19350505050158015610427573d6000803e3d6000fd5b508260010160009054906101000a900473ffffffffffffffffffffffffffffffffffffffff1673ffffffffffffffffffffffffffffffffffffffff166108fc829081150290604051600060405180830381858888f19350505050158015610492573d6000803e3d6000fd5b508260030160009054906101000a900473ffffffffffffffffffffffffffffffffffffffff1673ffffffffffffffffffffffffffffffffffffffff166342842e0e303386600401546040518463ffffffff1660e01b81526004016104f893929190611cfe565b600060405180830381600087803b15801561051257600080fd5b505af1158015610526573d6000803e3d6000fd5b5050505060008360060160006101000a81548160ff0219169083151502179055508260030160009054906101000a900473ffffffffffffffffffffffffffffffffffffffff1673ffffffffffffffffffffffffffffffffffffffff163373ffffffffffffffffffffffffffffffffffffffff167fae0a5043fad0418cf5fe7aecc5bc470022b72ed7985bc2e6b2cbfb922626ee5786866004015487600501546040516105d493929190611d35565b60405180910390a3600460008581526020019081526020016000206000808201600090556001820160006101000a81549073ffffffffffffffffffffffffffffffffffffffff02191690556002820160006101000a81549073ffffffffffffffffffffffffffffffffffffffff02191690556003820160006101000a81549073ffffffffffffffffffffffffffffffffffffffff0219169055600482016000905560058201600090556006820160006101000a81549060ff0219169055505050505061069e611491565b50565b600063150b7a0260e01b905095945050505050565b600360009054906101000a900473ffffffffffffffffffffffffffffffffffffffff1673ffffffffffffffffffffffffffffffffffffffff163373ffffffffffffffffffffffffffffffffffffffff1614610746576040517f08c379a000000000000000000000000000000000000000000000000000000000815260040161073d90611dde565b60405180910390fd5b603281111561078a576040517f08c379a000000000000000000000000000000000000000000000000000000000815260040161078190611e4a565b60405180910390fd5b600081116107cd576040517f08c379a00000000000000000000000000000000000000000000000000000000081526004016107c490611eb6565b60405180910390fd5b8060028190555050565b6107df61144b565b6000811015610823576040517f08c379a000000000000000000000000000000000000000000000000000000000815260040161081a90611f48565b60405180910390fd5b600060016000815461083490611f68565b919050819055905060008473ffffffffffffffffffffffffffffffffffffffff16637b10b3c3856040518263ffffffff1660e01b8152600401610877919061178c565b602060405180830381865afa158015610894573d6000803e3d6000fd5b505050506040513d601f19601f820116820180604052508101906108b89190611fc5565b90506040518060e001604052808381526020013373ffffffffffffffffffffffffffffffffffffffff1681526020018273ffffffffffffffffffffffffffffffffffffffff1681526020018673ffffffffffffffffffffffffffffffffffffffff16815260200185815260200184815260200160001515815250600460008481526020019081526020016000206000820151816000015560208201518160010160006101000a81548173ffffffffffffffffffffffffffffffffffffffff021916908373ffffffffffffffffffffffffffffffffffffffff16021790555060408201518160020160006101000a81548173ffffffffffffffffffffffffffffffffffffffff021916908373ffffffffffffffffffffffffffffffffffffffff16021790555060608201518160030160006101000a81548173ffffffffffffffffffffffffffffffffffffffff021916908373ffffffffffffffffffffffffffffffffffffffff1602179055506080820151816004015560a0820151816005015560c08201518160060160006101000a81548160ff0219169083151502179055509050508473ffffffffffffffffffffffffffffffffffffffff166342842e0e3330876040518463ffffffff1660e01b8152600401610a9893929190611cfe565b600060405180830381600087803b158015610ab257600080fd5b505af1158015610ac6573d6000803e3d6000fd5b505050508073ffffffffffffffffffffffffffffffffffffffff163373ffffffffffffffffffffffffffffffffffffffff167fe86b2962fb9ab779e7d1872c807a1f358061fbf2038bf7549a25766e3dd45bf160015487876001604051610b309493929190612001565b60405180910390a35050610b42611491565b505050565b6000600254905090565b600060046000838152602001908152602001600020600501549050919050565b60025481565b606060008273ffffffffffffffffffffffffffffffffffffffff16639b96eece306040518263ffffffff1660e01b8152600401610bb49190612046565b602060405180830381865afa158015610bd1573d6000803e3d6000fd5b505050506040513d601f19601f82011682018060405250810190610bf59190612076565b905060008167ffffffffffffffff811115610c1357610c126120a3565b5b604051908082528060200260200182016040528015610c4c57816020015b610c3961149b565b815260200190600190039081610c315790505b509050600080600190505b6001548111610e1e576000600460008381526020019081526020016000206000015414610e0b5783821015610e0a57600460008281526020019081526020016000206040518060e0016040529081600082015481526020016001820160009054906101000a900473ffffffffffffffffffffffffffffffffffffffff1673ffffffffffffffffffffffffffffffffffffffff1673ffffffffffffffffffffffffffffffffffffffff1681526020016002820160009054906101000a900473ffffffffffffffffffffffffffffffffffffffff1673ffffffffffffffffffffffffffffffffffffffff1673ffffffffffffffffffffffffffffffffffffffff1681526020016003820160009054906101000a900473ffffffffffffffffffffffffffffffffffffffff1673ffffffffffffffffffffffffffffffffffffffff1673ffffffffffffffffffffffffffffffffffffffff16815260200160048201548152602001600582015481526020016006820160009054906101000a900460ff161515151581525050838380610deb90611f68565b945081518110610dfe57610dfd6120d2565b5b60200260200101819052505b5b8080610e1690611f68565b915050610c57565b50819350505050919050565b610e3261144b565b60006004600084815260200190815260200160002090503373ffffffffffffffffffffffffffffffffffffffff168160010160009054906101000a900473ffffffffffffffffffffffffffffffffffffffff1673ffffffffffffffffffffffffffffffffffffffff1614610edb576040517f08c379a0000000000000000000000000000000000000000000000000000000008152600401610ed290612173565b60405180910390fd5b8173ffffffffffffffffffffffffffffffffffffffff168160030160009054906101000a900473ffffffffffffffffffffffffffffffffffffffff1673ffffffffffffffffffffffffffffffffffffffff1614610f6d576040517f08c379a0000000000000000000000000000000000000000000000000000000008152600401610f64906121df565b60405180910390fd5b8060030160009054906101000a900473ffffffffffffffffffffffffffffffffffffffff1673ffffffffffffffffffffffffffffffffffffffff166342842e0e303384600401546040518463ffffffff1660e01b8152600401610fd293929190611cfe565b600060405180830381600087803b158015610fec57600080fd5b505af1158015611000573d6000803e3d6000fd5b505050503373ffffffffffffffffffffffffffffffffffffffff167f03c0a1eb08ee9b373b2eee0ff81874c2eecc632e962925ae0fa3cfac84c594f08460405161104a919061178c565b60405180910390a25061105b611491565b5050565b61106761144b565b60006004600084815260200190815260200160002090503373ffffffffffffffffffffffffffffffffffffffff168160010160009054906101000a900473ffffffffffffffffffffffffffffffffffffffff1673ffffffffffffffffffffffffffffffffffffffff1614611110576040517f08c379a000000000000000000000000000000000000000000000000000000000815260040161110790612271565b60405180910390fd5b60008211611153576040517f08c379a000000000000000000000000000000000000000000000000000000000815260040161114a906122dd565b60405180910390fd5b8181600501819055503373ffffffffffffffffffffffffffffffffffffffff167fef5e5e4d1d6e180b49b2c8aecd91c4fcea953dd09e2f77c4bd4f60793a1cf3f184846040516111a49291906122fd565b60405180910390a2506111b5611491565b5050565b6111c161149b565b600460008381526020019081526020016000206040518060e0016040529081600082015481526020016001820160009054906101000a900473ffffffffffffffffffffffffffffffffffffffff1673ffffffffffffffffffffffffffffffffffffffff1673ffffffffffffffffffffffffffffffffffffffff1681526020016002820160009054906101000a900473ffffffffffffffffffffffffffffffffffffffff1673ffffffffffffffffffffffffffffffffffffffff1673ffffffffffffffffffffffffffffffffffffffff1681526020016003820160009054906101000a900473ffffffffffffffffffffffffffffffffffffffff1673ffffffffffffffffffffffffffffffffffffffff1673ffffffffffffffffffffffffffffffffffffffff16815260200160048201548152602001600582015481526020016006820160009054906101000a900460ff1615151515815250509050919050565b61132961144b565b60006004600084815260200190815260200160002090503373ffffffffffffffffffffffffffffffffffffffff168160010160009054906101000a900473ffffffffffffffffffffffffffffffffffffffff1673ffffffffffffffffffffffffffffffffffffffff16146113d2576040517f08c379a00000000000000000000000000000000000000000000000000000000081526004016113c990612398565b60405180910390fd5b818160060160006101000a81548160ff0219169083151502179055503373ffffffffffffffffffffffffffffffffffffffff167fc8aab00aa7fd5b79dc4c651eeb3998a09c5aa10e6a2deb9967a63bbec59865cc84846040516114369291906123b8565b60405180910390a250611447611491565b5050565b600260005403611487576040517f3ee5aeb500000000000000000000000000000000000000000000000000000000815260040160405180910390fd5b6002600081905550565b6001600081905550565b6040518060e0016040528060008152602001600073ffffffffffffffffffffffffffffffffffffffff168152602001600073ffffffffffffffffffffffffffffffffffffffff168152602001600073ffffffffffffffffffffffffffffffffffffffff16815260200160008152602001600081526020016000151581525090565b600080fd5b600080fd5b6000819050919050565b61153981611526565b811461154457600080fd5b50565b60008135905061155681611530565b92915050565b6000602082840312156115725761157161151c565b5b600061158084828501611547565b91505092915050565b600073ffffffffffffffffffffffffffffffffffffffff82169050919050565b60006115b482611589565b9050919050565b6115c4816115a9565b81146115cf57600080fd5b50565b6000813590506115e1816115bb565b92915050565b600080fd5b600080fd5b600080fd5b60008083601f84011261160c5761160b6115e7565b5b8235905067ffffffffffffffff811115611629576116286115ec565b5b602083019150836001820283011115611645576116446115f1565b5b9250929050565b6000806000806000608086880312156116685761166761151c565b5b6000611676888289016115d2565b9550506020611687888289016115d2565b945050604061169888828901611547565b935050606086013567ffffffffffffffff8111156116b9576116b8611521565b5b6116c5888289016115f6565b92509250509295509295909350565b60007fffffffff0000000000000000000000000000000000000000000000000000000082169050919050565b611709816116d4565b82525050565b60006020820190506117246000830184611700565b92915050565b6000806000606084860312156117435761174261151c565b5b6000611751868287016115d2565b935050602061176286828701611547565b925050604061177386828701611547565b9150509250925092565b61178681611526565b82525050565b60006020820190506117a1600083018461177d565b92915050565b6000602082840312156117bd576117bc61151c565b5b60006117cb848285016115d2565b91505092915050565b600081519050919050565b600082825260208201905092915050565b6000819050602082019050919050565b61180981611526565b82525050565b611818816115a9565b82525050565b60008115159050919050565b6118338161181e565b82525050565b60e08201600082015161184f6000850182611800565b506020820151611862602085018261180f565b506040820151611875604085018261180f565b506060820151611888606085018261180f565b50608082015161189b6080850182611800565b5060a08201516118ae60a0850182611800565b5060c08201516118c160c085018261182a565b50505050565b60006118d38383611839565b60e08301905092915050565b6000602082019050919050565b60006118f7826117d4565b61190181856117df565b935061190c836117f0565b8060005b8381101561193d57815161192488826118c7565b975061192f836118df565b925050600181019050611910565b5085935050505092915050565b6000602082019050818103600083015261196481846118ec565b905092915050565b600080604083850312156119835761198261151c565b5b600061199185828601611547565b92505060206119a2858286016115d2565b9150509250929050565b600080604083850312156119c3576119c261151c565b5b60006119d185828601611547565b92505060206119e285828601611547565b9150509250929050565b60e082016000820151611a026000850182611800565b506020820151611a15602085018261180f565b506040820151611a28604085018261180f565b506060820151611a3b606085018261180f565b506080820151611a4e6080850182611800565b5060a0820151611a6160a0850182611800565b5060c0820151611a7460c085018261182a565b50505050565b600060e082019050611a8f60008301846119ec565b92915050565b611a9e8161181e565b8114611aa957600080fd5b50565b600081359050611abb81611a95565b92915050565b60008060408385031215611ad857611ad761151c565b5b6000611ae685828601611547565b9250506020611af785828601611aac565b9150509250929050565b600082825260208201905092915050565b7f4173736574206973206e6f7420666f722073616c650000000000000000000000600082015250565b6000611b48601583611b01565b9150611b5382611b12565b602082019050919050565b60006020820190508181036000830152611b7781611b3b565b9050919050565b7f496e73756666696369656e742066756e64732073656e74000000000000000000600082015250565b6000611bb4601783611b01565b9150611bbf82611b7e565b602082019050919050565b60006020820190508181036000830152611be381611ba7565b9050919050565b7f4e487b7100000000000000000000000000000000000000000000000000000000600052601160045260246000fd5b6000611c2482611526565b9150611c2f83611526565b9250828202611c3d81611526565b91508282048414831517611c5457611c53611bea565b5b5092915050565b7f4e487b7100000000000000000000000000000000000000000000000000000000600052601260045260246000fd5b6000611c9582611526565b9150611ca083611526565b925082611cb057611caf611c5b565b5b828204905092915050565b6000611cc682611526565b9150611cd183611526565b9250828203905081811115611ce957611ce8611bea565b5b92915050565b611cf8816115a9565b82525050565b6000606082019050611d136000830186611cef565b611d206020830185611cef565b611d2d604083018461177d565b949350505050565b6000606082019050611d4a600083018661177d565b611d57602083018561177d565b611d64604083018461177d565b949350505050565b7f4f6e6c79207468652066656520616464726573732063616e207365742074686560008201527f2066656500000000000000000000000000000000000000000000000000000000602082015250565b6000611dc8602483611b01565b9150611dd382611d6c565b604082019050919050565b60006020820190508181036000830152611df781611dbb565b9050919050565b7f4665652063616e6e6f7420657863656564203530250000000000000000000000600082015250565b6000611e34601583611b01565b9150611e3f82611dfe565b602082019050919050565b60006020820190508181036000830152611e6381611e27565b9050919050565b7f4665652063616e6e6f74206265207a65726f0000000000000000000000000000600082015250565b6000611ea0601283611b01565b9150611eab82611e6a565b602082019050919050565b60006020820190508181036000830152611ecf81611e93565b9050919050565b7f5072696365206d7573742062652067726561746572207468616e206f7220657160008201527f75616c20746f2030000000000000000000000000000000000000000000000000602082015250565b6000611f32602883611b01565b9150611f3d82611ed6565b604082019050919050565b60006020820190508181036000830152611f6181611f25565b9050919050565b6000611f7382611526565b91507fffffffffffffffffffffffffffffffffffffffffffffffffffffffffffffffff8203611fa557611fa4611bea565b5b600182019050919050565b600081519050611fbf816115bb565b92915050565b600060208284031215611fdb57611fda61151c565b5b6000611fe984828501611fb0565b91505092915050565b611ffb8161181e565b82525050565b6000608082019050612016600083018761177d565b612023602083018661177d565b612030604083018561177d565b61203d6060830184611ff2565b95945050505050565b600060208201905061205b6000830184611cef565b92915050565b60008151905061207081611530565b92915050565b60006020828403121561208c5761208b61151c565b5b600061209a84828501612061565b91505092915050565b7f4e487b7100000000000000000000000000000000000000000000000000000000600052604160045260246000fd5b7f4e487b7100000000000000000000000000000000000000000000000000000000600052603260045260246000fd5b7f4f6e6c7920746865206f776e65722063616e2072656d6f76652074686520417360008201527f7365740000000000000000000000000000000000000000000000000000000000602082015250565b600061215d602383611b01565b915061216882612101565b604082019050919050565b6000602082019050818103600083015261218c81612150565b9050919050565b7f546f6b656e2061646472657373206d69736d6174636800000000000000000000600082015250565b60006121c9601683611b01565b91506121d482612193565b602082019050919050565b600060208201905081810360008301526121f8816121bc565b9050919050565b7f4f6e6c7920746865206f776e65722063616e207570646174652074686520707260008201527f6963650000000000000000000000000000000000000000000000000000000000602082015250565b600061225b602383611b01565b9150612266826121ff565b604082019050919050565b6000602082019050818103600083015261228a8161224e565b9050919050565b7f5072696365206d7573742062652067726561746572207468616e203000000000600082015250565b60006122c7601c83611b01565b91506122d282612291565b602082019050919050565b600060208201905081810360008301526122f6816122ba565b9050919050565b6000604082019050612312600083018561177d565b61231f602083018461177d565b9392505050565b7f4f6e6c7920746865206f776e65722063616e207365742074686520417373657460008201527f20666f722073616c650000000000000000000000000000000000000000000000602082015250565b6000612382602983611b01565b915061238d82612326565b604082019050919050565b600060208201905081810360008301526123b181612375565b9050919050565b60006040820190506123cd600083018561177d565b6123da6020830184611ff2565b939250505056fea26469706673582212207810aa4d2d2c74d0232695707233d3cdc8ebe74a2a9d0d212bbdae8feb31d52f64736f6c634300081c0033",
  "linkReferences": {},
  "deployedLinkReferences": {}
}